:100000000207D702000E53BCEF3222020019B28061
:10001000322222020016B28132323202001AB28239
:0100200032AD
:06002300020966B28332FF
:0E002B0002000612001212000A12001180FBE1
:06003B00020740B284320E
:0E004300020863C28ED203758DFF758BFF32EB
:0600530002001EB2903213
:03005B000200267A
:0300630002005642
:1000830002003E02032EE86480F8E933E83360118E
:100093000460F0ED33EC337009E8FCE9FDEAFEEBB4
:1000A300FF220460DED3EB9FEA9EE99DE8C2E78C62
:1000B300F0C2F795F0400CE8CCF8E9CDF9EACEFAB6
:1000C300EBCFFB1202F985D0F05804700320D5B3AF
:1000D300E80470075002B2D502033892D5EC0460ED
:1000E300F7E4CCC0E0C398F8603B94186008400D77
:1000F300D0E0FB020310E4FBFAC9FC8028E830E4FB
:1001030006E4C9FBE4CAFCE830E305E4C9CACBFC56
:10011300E854076010F8C3E913F9EA13FAEB13FB89
:10012300EC13FCD8F130F52FC3E49CFCEF9BFFEEFE
:100133009AFEED99FDD0E0FBEF4E4D4C701222DBA1
:1001430003020335EC2CFCEF33FFEE33FEED33FDFE
:10015300ED30E7EB020310EF2BFFEE3AFEED39FD36
:10016300D0E0FB50130BBB0003020338ED13FDEE8D
:1001730013FEEF13FFEC13FC020310EC4D6011E8C8
:10018300497017ED33EC3304600DE4FCFFFEFD22F0
:10019300E933E8330470F802032E1202F9580460BD
:1001A30009E4CC248150062850090203382840036F
:1001B300020335C0E0EB4A7044B98006D0E0FB028D
:1001C3000324EF4E701CBD8008EBFFEAFEE9FD80BF
:1001D300EBE98DF0A4FEE5F0020267E9CDF9EAFE52
:1001E300EBFFEF89F0A4FCE5F0CE89F0A42EFFE449
:1001F30035F0CD89F0A42DFEE435F08067EF4E7025
:1002030005BD80D780C3EF8BF0A4ACF0EE8BF0A4D8
:100213002CFCE435F0F8EF8AF0A42CE5F038FCE48C
:1002230033CB8DF0A42CFCE5F03BF8EE8AF0A42C44
:10023300FCE5F038F8E433CF89F0A42CFCE5F03882
:10024300CF3400CE89F0A42FFFE5F03EFEE433C99E
:100253008DF0A42EFEE5F039CD8AF0A42FFFE5F052
:100263003EFEE43DFD33D0E0FB50070BBB000F0225
:100273000338EC2CFCEF33FFEE33FEED33FD0203CA
:100283001075F020800E75F010800575F0087D0064
:100293007E007F003392D530D503120651EC3340F4
:1002A30010EF33FFEE33FEED33FDEC33FCD5F0ED11
:1002B30022E5F0247EA2D513CC92E7CDCEFF22ED2A
:1002C300D2E7CD33EC3392D524814006E4FFFEFD23
:1002D300FC22FCE4CFCECDCC24E0501174FF80EDA2
:1002E300C3CC13CCCD13CDCE13CECF13CF0470F02C
:1002F30030D5DE020651E9D2E7C933E833F892D5A7
:10030300EDD2E7CD33EC33FC5002B2D522EC30E72B
:10031300100FBF000C0EBE00080DBD00040BEB60F8
:1003230014A2D5EB13FCED92E7FD2274FFFCFDFE56
:10033300FF22E480F8A2D574FF13FC7D80E480EFF4
:10034300E709F608DFFA8046E709F208DFFA803E9C
:1003530088828C83E709F0A3DFFA8032E309F60889
:10036300DFFA8078E309F208DFFA807088828C83F1
:10037300E309F0A3DFFA806489828A83E0A3F608A5
:10038300DFFA805889828A83E0A3F208DFFA804C7F
:1003930080D280FA80C680D4806980F28033801056
:1003A30080A680EA809A80A880DA80E280CA8033BF
:1003B30089828A83ECFAE493A3C8C582C8CCC58337
:1003C300CCF0A3C8C582C8CCC583CCDFE9DEE78007
:1003D3000D89828A83E493A3F608DFF9ECFAA9F086
:1003E300EDFB2289828A83ECFAE0A3C8C582C8CCDC
:1003F300C583CCF0A3C8C582C8CCC583CCDFEADEF5
:10040300E880DB89828A83E493A3F208DFF980CC56
:1004130088F0EF60010E4E60C388F0ED2402B4044F
:100423000050B9F582EB2402B4040050AF232345F6
:10043300822390039373BB010689828A83E022504F
:1004430002E722BBFE02E32289828A83E49322BB72
:10045300010CE58229F582E5833AF583E022500613
:10046300E92582F8E622BBFE06E92582F8E222E5C9
:100473008229F582E5833AF583E49322BB01068959
:10048300828A83F0225002F722BBFE01F322BC00D2
:100493000BBE0029EF8DF084FFADF022E4CCF8759C
:1004A300F008EF2FFFEE33FEEC33FCEE9DEC9840AB
:1004B30005FCEE9DFE0FD5F0E9E4CEFD22EDF8F547
:1004C300F0EE8420D21CFEADF075F008EF2FFFEDA7
:1004D30033FD4007985006D5F0F222C398FD0FD59F
:1004E300F0EA22C5F0F8A3E028F0C5F0F8E582159C
:1004F3008270021583E038F022BB0110E58229F5F2
:1005030082E5833AF583E0F5F0A3E0225009E9257B
:1005130082F886F008E622BBFE0AE92582F8E2F5B6
:10052300F008E222E5832AF583E993F5F0A3E99342
:1005330022E88FF0A4CC8BF0A42CFCE98EF0A42C41
:10054300FC8AF0EDA42CFCEA8EF0A4CDA8F08BF08D
:10055300A42DCC3825F0FDE98FF0A42CCD35F0FC8B
:10056300EB8EF0A4FEA9F0EB8FF0A4CFC5F02ECD57
:1005730039FEE43CFCEAA42DCE35F0FDE43CFC223C
:1005830075F008758200EF2FFFEE33FECD33CDCC2F
:1005930033CCC58233C5829BED9AEC99E5829840B2
:1005A3000CF582EE9BFEED9AFDEC99FC0FD5F0D68F
:1005B300E4CEFBE4CDFAE4CCF9A88222B800C1B9B9
:1005C3000059BA002DEC8BF084CFCECDFCE5F0CBF7
:1005D300F97818EF2FFFEE33FEED33FDEC33FCEB30
:1005E30033FB10D703994004EB99FB0FD8E5E4F9EB
:1005F300FA227818EF2FFFEE33FEED33FDEC33FCD8
:10060300C933C910D7059BE99A4007EC9BFCE99ACB
:10061300F90FD8E0E4C9FAE4CCFB2275F010EF2F10
:10062300FFEE33FEED33FDCC33CCC833C810D70710
:100633009BEC9AE899400AED9BFDEC9AFCE899F84B
:100643000FD5F0DAE4CDFBE4CCFAE4C8F922C3E435
:100653009FFFE49EFEE49DFDE49CFC22EB9FF5F0EE
:10066300EA9E42F0E99D42F0E89C45F022E8600FE3
:10067300ECC313FCED13FDEE13FEEF13FFD8F122D1
:10068300E0FCA3E0FDA3E0FEA3E0FF22E0F8A3E08B
:10069300F9A3E0FAA3E0FB22BB010DE58229F58271
:1006A300E5833AF58302068F5007E92582F80207AE
:1006B30016BBFE07E92582F8020723E58229F582A6
:1006C300E5833AF583020730ECF0A3EDF0A3EEF0F7
:1006D300A3EFF022E0FBA3E0FAA3E0F922EBF0A3FF
:1006E300EAF0A3E9F022D083D082F8E49370127485
:1006F3000193700DA3A393F8740193F5828883E4A7
:1007030073740293B5F0067403936860E9A3A3A31B
:10071300A380D8E6FB08E6F908E6FA08E6CBF82258
:10072300E2FB08E2F908E2FA08E2CBF822E493F8E4
:10073300740193F9740293FA740393FB22C0E0C02B
:10074300F0C083C082C0D075D000C000C006C0070F
:1007530030D823C2D830A50590022D8003900227FC
:10076300E0FEA3E0900233120A4C900233E0FEA3B2
:10077300E0F5EAEEF5FA30D923C2D930A6059002A6
:100783002F8003900229E0FEA3E0900235120A4C69
:10079300900235E0FEA3E0F5EBEEF5FB30DA24C280
:1007A300DA30A705900231800390022BE0FEA3E02C
:1007B300FF900237120A4D900237E0FEA3E0F5ECFA
:1007C300EEF5FCD007D006D000D0D0D082D083D0B5
:1007D300F0D0E032787FE4F6D8FD75812002081E60
:1007E30002002EE493A3F8E493A34003F68001F2FE
:1007F30008DFF48029E493A3F85407240CC8C33317
:10080300C4540F4420C8834004F456800146F6DFE5
:10081300E4800B0102040810204080900A69E47E02
:10082300019360BCA3FF543F30E509541FFEE493DA
:10083300A360010ECF54C025E060A840B8E493A3A1
:10084300FAE493A3F8E493A3C8C582C8CAC583CACC
:10085300F0A3C8C582C8CAC583CADFE9DEE780BE84
:10086300C0E0C083C082C0D075D000C006C007E519
:100873009A30E02E539AFE90000DE0702590000B05
:10088300E0C394804002E4F090000BE0FF04F074B6
:100893008E2FF582E43400F583E59BF090000C7411
:1008A30005F0E59A30E12E539AFD900009E0FF90A0
:1008B3000008E0FE6F6019748E2EF582E43401F5B2
:1008C30083E0F59B90000812095F4009E4F080057E
:1008D30090000AE4F0D007D006D0D0D082D083D0E5
:1008E300E03290000212069B7F007E607D547C0004
:1008F3001205BF9000001206CBE4FFFE7D01FC90C1
:10090300000012068FC322538EF7438E049000001B
:1009130012068378081206708FD6900000020683B1
:10092300F0E4A3F0A3F0A3F0A3F0A3F0A3F022F567
:1009330083E4F0900000E004F022E49BFFE49AFEDD
:10094300740199FDE498FC9000000206CB9000002E
:10095300E0FFC39480229000000206D7E004F0C3B6
:10096300948022C0E0C083C082C0D075D000C0068E
:10097300C00730982DC298900006E07025900004BF
:10098300E0C394804002E4F0900004E0FF04F074BC
:100993000E2FF582E43400F583E599F09000057499
:1009A30005F030992DC299900002E0FF900001E01C
:1009B300FE6F6019740E2EF582E43401F583E0F5C1
:1009C3009990000112095F4009E4F080059000034B
:1009D300E4F0D007D006D0D0D082D083D0E032C2AA
:1009E300D5E830E70FB2D5E4C39BFBE49AFAE49968
:1009F300F9E498F8EC30E717B2D5120A181205BFDC
:100A0300E4C39BFBE49AFAE499F9E498F8800312AF
:100A130005BF30D50DE4C39FFFE49EFEE49DFDE4D6
:100A23009CFC229000001206D7900004120452FF8F
:100A3300900002120452FE4F22C3ED9450EC940036
:100A430022900003120452FF22FFEE8FF00204E60D
:100A5300E92404F9E43AFA0204399000000206D7C3
:100A63009000060204FC41022100410223004102DE
:100A73001700410218004402110000000044021B49
:100A83000000000041022201410210004202150051
:100A93000042020E01EA420219000042021F000056
:100AA30000F0900000E47BFFFAF9F81206830205D8
:100AB300BF90000012068F120534E47BFFFAF9F8A9
:100AC3001205BFC374FF9FFFE49EFEE49DFDE49CFB
:100AD300FC22900221E0F58C90022322C0E0C08327
:100AE300C082209005120AD58007900217E0F58C8A
:100AF300A3E0F58AC28CD28CB290D082D083D0E0AE
:010B030032BF
:00000001FF
